{
  "contractName": "HelloWorld",
  "abi": [
    {
      "inputs": [],
      "payable": false,
      "stateMutability": "nonpayable",
      "type": "constructor"
    },
    {
      "constant": true,
      "inputs": [],
      "name": "getvalor",
      "outputs": [
        {
          "internalType": "uint8",
          "name": "",
          "type": "uint8"
        }
      ],
      "payable": false,
      "stateMutability": "view",
      "type": "function"
    }
  ],
  "bytecode": "0x608060405260086000806101000a81548160ff021916908360ff160217905550348015602a57600080fd5b50609a806100396000396000f3fe6080604052348015600f57600080fd5b506004361060285760003560e01c80636eda091a14602d575b600080fd5b6033604f565b604051808260ff1660ff16815260200191505060405180910390f35b60008060009054906101000a900460ff1690509056fea265627a7a72315820fa87ed558485f4b6d4b0c92b17b934cf2d1615729aeb14e3bfaaaa9d22a3558b64736f6c63430005100032",
  "source": "// SPDX-License-Identifier: MIT\npragma solidity >=0.4.22 <0.8.0;\n\ncontract HelloWorld {\n  uint8 valor = 8;\n\n  constructor() public {\n  }\n\n  function getvalor()view public returns(uint8){\n    return valor;\n  }\n  \n}\n",
  "sourcePath": "/Users/gustavofernandes/Desktop/testSol/contracts/HelloWorld.sol",
  "compiler": {
    "name": "solc",
    "version": "0.5.16+commit.9c3226ce.Emscripten.clang"
  },
  "schemaVersion": "3.3.1",
  "updatedAt": "2020-11-14T12:19:28.272Z",
  "networkType": "ethereum",
  "devdoc": {
    "methods": {}
  },
  "userdoc": {
    "methods": {}
  }
}